:100000000C947A030C948C030C948C030C94C426EB
:100010000C9437120C948C030C948C030C948C036A
:100020000C948C030C94F5170C948C030C94F8141A
:100030000C948C030C948C030C948C030C948C0304
:100040000C948C030C948C030C94AD110C946F11D4
:100050000C948C030C948C030C948C030C948C03E4
:100060000C948C030C948C03084AD73B3BCE016E56
:1000700084BCBFFDC12F3D6C74319ABD56833DDAFF
:100080003D00C77F11BED9E4BB4C3E916BAAAABE0E
:10009000000000803F05A84CCDB2D44EB93836A937
:1000A000020C50B9918688083CA6AAAA2ABE000074
:1000B00000803F003E0D0A002C0057506F733A003D
:1000C0002C002C4D506F733A003C436865636B0005
:1000D0003C416C61726D003C486F6D65003C486F3F
:1000E0006C64003C52756E003C5175657565003C52
:1000F00049646C65000D0A003D00244E005D0D0A48
:1001000000204600205400204D3800204D390020AA
:100110004D3500204D3400204D3300204D3200205D
:100120004D3100204D30002047393400204739330D
:100130000020473931002047393000204732310054
:100140002047323000204731390020473138002025
:10015000473137002047005B473830005B473300AA
:100160005B4732005B4731005B4730005D0D0A00A2
:100170002C005B4739323A005D0D0A002C00333009
:100180003A0032383A0035393A0035383A003537D6
:100190003A0035363A0035353A0035343A005B4797
:1001A000002028686F6D696E672070756C6C2D6F0C
:1001B00066662C206D6D290D0A002028686F6D6918
:1001C0006E67206465626F756E63652C206D736564
:1001D00063290D0A2432323D002028686F6D696E54
:1001E00067207365656B2C206D6D2F6D696E290D11
:1001F0000A2432313D002028686F6D696E672066E1
:100200006565642C206D6D2F6D696E290D0A243291
:10021000303D00290D0A2431393D002028686F6DDA
:10022000696E672064697220696E76657274206DEC
:1002300061736B2C20696E743A002028686F6D69B9
:100240006E67206379636C652C20626F6F6C290D7B
:100250000A2431383D00202868617264206C696D81
:100260006974732C20626F6F6C290D0A2431373D3D
:10027000002028696E76657274207374657020653D
:100280006E61626C652C20626F6F6C290D0A2431DF
:10029000363D0020286175746F2073746172742C70
:1002A00020626F6F6C290D0A2431353D00202872C1
:1002B00065706F727420696E636865732C20626F5D
:1002C0006F6C290D0A2431343D0020286E2D6465A1
:1002D00063696D616C732C20696E74290D0A243179
:1002E000333D0020286E2D61726320636F7272654A
:1002F0006374696F6E2C20696E74290D0A24313283
:100300003D0020286172632C206D6D2F7365676D31
:10031000656E74290D0A2431313D0020286A756EFE
:100320006374696F6E20646576696174696F6E2CA1
:10033000206D6D290D0A2431303D00202861636352
:10034000656C65726174696F6E2C206D6D2F7365BD
:10035000635E32290D0A24393D00202873746570CC
:100360002069646C652064656C61792C206D73650F
:1003700063290D0A24383D00290D0A24373D002049
:10038000287374657020706F727420696E76657260
:1003900074206D61736B2C20696E743A00202864A0
:1003A000656661756C74207365656B2C206D6D2FAF
:1003B0006D696E290D0A24363D002028646566614A
:1003C000756C7420666565642C206D6D2F6D696E8B
:1003D000290D0A24353D002028737465702070753E
:1003E0006C73652C2075736563290D0A24343D00F8
:1003F00020287A2C20737465702F6D6D290D0A24C6
:10040000333D002028792C20737465702F6D6D2981
:100410000D0A24323D002028782C20737465702F3B
:100420006D6D290D0A24313D0024303D0024242027
:100430002876696577204772626C207365747469E9
:100440006E6773290D0A2423202876696577202397
:1004500020706172616D6574657273290D0A24479D
:1004600020287669657720706172736572207374D5
:10047000617465290D0A244E2028766965772073FA
:1004800074617274757020626C6F636B73290D0AEE
:1004900024783D76616C7565202873617665204708
:1004A00072626C2073657474696E67290D0A244E3C
:1004B000783D6C696E652028736176652073746180
:1004C0007274757020626C6F636B290D0A2443206F
:1004D00028636865636B2067636F6465206D6F6474
:1004E00065290D0A245820286B696C6C20616C61A9
:1004F000726D206C6F636B290D0A24482028727579
:100500006E20686F6D696E67206379636C65290D75
:100510000A7E20286379636C652073746172742984
:100520000D0A2120286665656420686F6C64290DBA
:100530000A3F202863757272656E7420737461744B
:100540007573290D0A6374726C2D78202872657397
:100550006574204772626C290D0A000D0A477262A9
:100560006C20302E3863205B27242720666F722092
:1005700068656C705D0D0A005D0D0A004469736169
:10058000626C656400456E61626C65640043617510
:1005900074696F6E3A20556E6C6F636B65640027EB
:1005A0002448277C2724582720746F20756E6C6F91
:1005B000636B00526573657420746F20636F6E7493
:1005C000696E7565005B002E204D506F733F0D0AFC
:1005D0000041626F727420647572696E672063797E
:1005E000636C650048617264206C696D69740041D8
:1005F0004C41524D3A20000D0A004C696E65206F47
:10060000766572666C6F7700416C61726D206C6FFD
:10061000636B0042757379206F7220717565756523
:100620006400454550524F4D2072656164206661FB
:10063000696C2E205573696E672064656661756C00
:1006400074730056616C7565203C203320757365AA
:10065000630056616C7565203C20302E3000536578
:100660007474696E672064697361626C65640049C3
:100670006E76616C69642073746174656D656E7407
:10068000004D6F64616C2067726F75702076696FC2
:100690006C6174696F6E00496E76616C696420727A
:1006A000616469757300556E737570706F727465EF
:1006B000642073746174656D656E7400457870654F
:1006C0006374656420636F6D6D616E64206C657426
:1006D00074657200426164206E756D626572206699
:1006E0006F726D6174006572726F723A20006F6B89
:1006F0000D0A000011241FBECFEFD8E0DEBFCDBF32
:1007000027E0A0E0B1E001C01D92A733B207E1F7F6
:100710000E948E030C9407320C9400000E943D113D
:100720000E94A41B0E9420187894EEEBF5E08EE066
:10073000DF011D928A95E9F781E08093BC058093E3
:10074000BD05C6E0D1E08091BC05882349F10E9437
:10075000FC110E94071F0E9486080E9401120E943D
:1007600004110E9426110E94A6260E940C180E94C5
:10077000CA241092BC051092BE058091240781FD09
:10078000D093CB059091BD05913019F484FDC093B1
:10079000BD058091BD05863041F482E00E940C29A0
:1007A0000E9473120E94F313CECF1092BD050E94D7
:1007B0001812F6CF4F925F926F927F928F92AF9204
:1007C000BF92CF92DF92EF92FF920F931F93CF933E
:1007D000DF93CDB7DEB728970FB6F894DEBF0FBE14
:1007E000CDBF2B013C0129833A834B835C83ED828F
:1007F000FE820F8318878091BD058730C1F10E946A
:1008000073128091BC05811132C00E94321F811188
:10081000F6CFED80FE800F81188529813A814B81CA
:100820005C81C301B2010E94491F8091BD05811105
:1008300003C082E08093BD058091CB058823B9F089
:1008400028960FB6F894DEBF0FBECDBFDF91CF91D3
:100850001F910F91FF90EF90DF90CF90BF90AF90DE
:100860008F907F906F905F904F900C944D182896CA
:100870000FB6F894DEBF0FBECDBFDF91CF911F91B1
:100880000F91FF90EF90DF90CF90BF90AF908F903F
:100890007F906F905F904F9008952F923F924F926C
:1008A0005F926F927F928F929F92AF92BF92CF9200
:1008B000DF92EF92FF920F931F93CF93DF93CDB709
:1008C000DEB7EB970FB6F894DEBF0FBECDBF3C018D
:1008D0007A8F698F2A012F8F0DA3EFA2A9A2BAA246
:1008E000CBA2DCA289A634E0239F80011124400F13
:1008F000511F5BA74AA7DA018D909D90AD90BC90E7
:10090000FC01E00FF11F2081318142815381C5013B
:10091000B4010E94BE2C6EA77FA788AB99ABEDA156
:10092000B4E0EB9F100111249201220D331D3DA76D
:100930002CA7D901CD90DD90ED90FC90F301E20D54
:10094000F31D2081318142815381C701B6010E948C
:10095000BE2C6AAB7BAB8CAB9DABEFA1B4E0EB9F45
:10096000C0011124F301E80FF91F20813181428178
:1009700053812D8B3E8B4F8B588F498D5A8D840F11
:10098000951F2D893E894F89588DDC016D917D9190
:100990008D919C910E94BD2C6B8F7C8F8D8F9E8F33
:1009A0002401350177FA709477F87094A7019601C5
:1009B00050582D873E874F87588BE98DFA8DE00F71
:1009C000F11F2EA53FA548A959A960817181828197
:1009D00093810E94BD2C6B017C01E98DFA8DE20DA3
:1009E000F31D2AA93BA94CA95DA96081718182816F
:1009F00093810E94BD2C4B015C01A7019601C301AC
:100A0000B2010E94BC30698B7A8B8B8B9C8BA501C9
:100A100094016D857E858F8598890E94BC309B01ED
:100A2000AC0169897A898B899C890E94BE2C698B6B
:100A30007A8B8B8B9C8BA5019401C301B2010E9420
:100A4000BC304B015C01A70196016D857E858F85C9
:100A500098890E94BC309B01AC01C501B4010E9481
:100A6000BD2C29893A894B895C890E943D2D6B01F7
:100A70007C0165968FAD659720E030E0A901882361
:100A800009F4EEC0C701B6010E94D52F87FD0AC048
:100A90002BED3FE049EC50E4C701B6010E94BD2CAC
:100AA0006B017C0164962CAD3DAD4EAD5FAD64979E
:100AB000C701B6010E94BC302B8D3C8D4D8D5E8DE3
:100AC0000E94E82F4B015C0120E030E0A9010E9468
:100AD000B32D882309F4ABC0209118073091190772
:100AE00040911A0750911B07C501B4010E94BD2D0A
:100AF0000E94A22E0E94362E7FAB6EAB90E080E06B
:100B00000E94652E4B015C0139A5332361F0AC01D5
:100B10009B0169A17AA18BA19CA10E94BC3069A311
:100B20007AA38BA39CA3A5019401C701B6010E94DF
:100B3000BD2D698B7A8B8B8B9C8BA50194016B8D62
:100B40007C8D8D8D9E8D0E94BD2D68AF79AF8AAF53
:100B50009BAF20E030E040E05FE369897A898B89D0
:100B60009C890E94BC3029893A894B895C890E9402
:100B7000BC309B01AC0160E070E080E89FE30E9424
:100B8000BD2C6B8F7C8F8D8F9E8F5FA144E0549F17
:100B9000F001112481E090E08C0F9D1FE80FF91FF8
:100BA0002D893E894F89588D208331834283538319
:100BB000912C22242394312C4F8D34E0439FC0018B
:100BC0001124A1E0B0E0AC0FBD1FA80FB91FB8A75A
:100BD000AFA32DA1B4E02B9F8001112441E050E090
:100BE0004C0F5D1F400F511F5EA34DA3F8A3EF8F65
:100BF000EEA9FFA92E163F0608F442C0A98DBA8DB2
:100C00001896ED90FD900D911C911B9714962D91C7
:100C10003D914D915C9117976D917D918D919C9136
:100C200089A4A9A0BAA0CBA0DCA00E94DA03EB960D
:100C30000FB6F894DEBF0FBECDBFDF91CF911F91ED
:100C40000F91FF90EF90DF90CF90BF90AF909F906B
:100C50008F907F906F905F904F903F902F9008956E
:100C6000C701B6010E94B32D18160CF41BCF2BED53
:100C70003FE049EC50E4C701B6010E94BE2C10CF02
:100C800020913607892D092C000C990B281719067D
:100C900009F00CF48CC029893A894B895C89C3011D
:100CA000B2010E94BC306B017C012B8D3C8D4D8DBF
:100CB0005E8D6D857E858F8598890E94BC309B01F5
:100CC000AC01C701B6010E94BE2C7B018C012B8DAB
:100CD0003C8D4D8D5E8DC301B2010E94BC302B0155
:100CE0003C0129893A894B895C896D857E858F8590
:100CF00098890E94BC309B01AC01C301B2010E94E3
:100D0000BD2C2B013C019394C701D8018D879E8790
:100D1000AF87B88B2EA53FA548A959A9C301B20139
:100D20000E94BE2CEFA1F8A5608371838283938318
:100D30002AA93BA94CA95DA96D857E858F859889D7
:100D40000E94BE2CADA1BEA16D937D938D939C930B
:100D5000139728AD39AD4AAD5BADEF8DF8A1608139
:100D60007181828193810E94BE2CAF8DB8A16D9359
:100D70007D938D939C931397E984FA840B851C854E
:100D80002D813E814F81588569817A818B819C813B
:100D900089A4A9A0BAA0CBA0DCA00E94DA0380910C
:100DA000BC05811144CFBFEF2B1A3B0A21CFB10103
:100DB00090E080E00E94652E29893A894B895C8900
:100DC0000E94BC306B017C010E94B82D6D8B7E8B24
:100DD0008F8B988FC701B6010E944D314B015C018A
:100DE000AAA5BBA5CD90DD90ED90FC90F7FAF0940C
:100DF000F7F8F094ACA5BDA52D913D914D915C9176
:100E00002D873E874F87588B2D893E894F89588D76
:100E1000C701B6010E94BC302B013C01A501940121
:100E20006D857E858F8598890E94BC309B01AC01C1
:100E3000C301B2010E94BE2C2B013C01A50194010B
:100E4000C701B6010E94BC306B017C012D893E892F
:100E50004F89588D6D857E858F8598890E94BC301D
:100E60009B01AC01C701B6010E94BD2C6D877E8736
:100E70008F87988B912C4ECF8F929F92AF92BF927B
:100E8000CF92DF92EF92FF92CF93DF936B017C01C1
:100E900020E030E040EA51E40E94BC300E94A22EE3
:100EA0000E94362E4B01EB010E943A1F20E030E0F9
:100EB0004AE754E4C701B6010E94BC306B017C01D3
:100EC00082E3889DB001899D700D112490E080E03F
:100ED0000E94652E9B01AC01C701B6010E94BD2C8A
:100EE0000E94A22E0E94362ECB010E9482242097BF
:100EF00059F4DF91CF91FF90EF90DF90CF90BF90AA
:100F0000AF909F908F9008950E94731221978091C7
:100F1000BC058111EECF2FEF80E792E02150804099
:100F20009040E1F700C00000E2CF4F925F926F92D5
:100F30007F928F92AF92BF92CF92DF92EF92FF9209
:100F40000F931F93CF93DF93CDB7DEB729970FB6DB
:100F5000F894DEBF0FBECDBF85E08093BD058091C4
:100F60006B00817F80936B000E94F5260E947312B4
:100F70008091BC05811166C0EFEBF5E08CE0DF01EC
:100F80001D928A95E9F70E94CA241092BD058091AE
:100F9000250785FD6DC0BFEFB98786FD6CC08FEF5B
:100FA0008D834090300750903107609032077090E9
:100FB0003307A0902A07B0902B07C0902C07D09041
:100FC0002D0720E030E0A901C301B2010E94BC302E
:100FD00069837A838B839C83AD816A2FAA0F770BF9
:100FE000880B990B0E94672EA30192010E94BC30CE
:100FF0006D837E838F839887B9856B2FBB0F770BAB
:10100000880B990B0E94672EA30192010E94BC30AD
:10101000812CE980FA800B811C812D813E814F81DA
:1010200058850E94DA030E944D180E943A1F0E94C0
:10103000CA248091240783FF05C080916B008E60D5
:1010400080936B0029960FB6F894DEBF0FBECDBF1C
:10105000DF91CF911F910F91FF90EF90DF90CF9094
:10106000BF90AF908F907F906F905F904F9008955A
:1010700021E0298792CF91E09D8393CF8091BE0597
:1010800084FD15C08091BE0580618093BE050E94DD
:1010900002110E9424118091BD058350833038F4E1
:1010A0008091BE0580628093BE050C94E014089583
:1010B0000F931F93CF93DF938C01EA01F901A08175
:1010C000A40FB52FB11D9C91992341F0D8019C9399
:1010D00091549A3130F082E08093CC0590E080E02A
:1010E0000DC090819F5F9083AB01B901CE010E943A
:1010F000CE23009741F421E02093CC05DF91CF91DE
:101100001F910F91089581E090E0F8CFECECF5E0AD
:1011100085E3DF011D928A95E9F780910F07909191
:101120001007A0911107B09112078093D4059093F6
:10113000D505A093D605B093D70581E08093E60549
:1011400092E09093E7058093D00569EE75E080E02A
:101150000E941E1A811103C08AE00C94A5280895EC
:101160008F929F92AF92BF92CF92DF92EF92FF92B7
:101170000F931F93CF93DF9349015A0167017801C1
:10118000CCECD5E00E94672E01E017E0F801208149
:101190003181428153810E94BD2D6C877D878E876E
:1011A0009F87C501B4010E94672EF8012481358113
:1011B000468157810E94BD2D688B798B8A8B9B8BD2
:1011C000C701B6010E94672EF8012085318542854E
:1011D00053850E94BD2D6C8B7D8B8E8B9F8BDF91F9
:1011E000CF911F910F91FF90EF90DF90CF90BF9024
:1011F000AF909F908F9008952F923F924F925F9261
:101200006F927F928F929F92AF92BF92CF92DF9216
:10121000EF92FF920F931F93CF93DF93CDB7DEB77B
:10122000E9970FB6F894DEBF0FBECDBF2C018091B9
:10123000BD05863009F401C71AA6FE0179968CE037
:10124000DF01282F1D922A95E9F73C97DF011D92B7
:101250008A95E9F71092CC051BA618AA312C212CEF
:10126000CC24C394D12CB5E07B2E01E012E0F12E0A
:1012700083E0E82E94E0692E9E01265D3F4FA20197
:10128000BE016B5D7F4FCE0189960E945808892B65
:1012900009F05AC08091CC0581113DC01AA6612C7D
:1012A00010E01CA61DA61EA61FA6812C912C540181
:1012B0001AAA1BAAA0E8ACABBFEBBDABF3E07F2E34
:1012C00006E09E01265D3F4FA201BE016B5D7F4F90
:1012D000CE0189960E945808892B09F07AC1809125
:1012E000CC05811118C08091BD05873041F08091F7
:1012F000D2050E940A118091D3050E942B1131FE64
:1013000086C2BE016F5F7F4F8091E8050E941E1A62
:10131000811174C28AE0E9960FB6F894DEBF0FBE61
:10132000CDBFDF91CF911F910F91FF90EF90DF9094
:10133000CF90BF90AF909F908F907F906F905F9075
:101340004F903F902F9008958DA09EA0AFA0B8A47D
:10135000C501B4010E949F310E942F2EAB01CB0129
:1013600029A5273479F02D3409F086CF6630710530
:101370000CF0DBC0633071050CF0EDC077FDD9C017
:1013800015E0EAC06E31710549F194F564317105DB
:101390003CF5613171050CF052C664307105F1F015
:1013A000D4F477FF3AC08531910509F482C00CF07E
:1013B000D8C68430910509F401C70CF0BBC6813052
:1013C000910509F45EC00CF0ACC610E0892B09F45D
:1013D00042C010E081C66A30710529F711E027C0CC
:1013E00017E0663171051CF16C317105E1F6F6CF3D
:1013F0006C357105A4F46A3571050CF040C06C338E
:10140000710544F419E0663371058CF46533710598
:1014100029F3C9CF6035710531F612E008C06C358B
:101420007105E1F216E06F3571050CF0BCCF853126
:10143000910509F43FC00CF029C68430910509F4E8
:101440006DC60CF008C681309105E1F00CF0F9C5CD
:10145000892B09F041C61092CD05112309F40CCF58
:10146000C60102C0880F991F1A95E2F79C0122213C
:101470003321232B09F4A7C07092CC05FDCE14E0D4
:10148000D6CF10E00093CD05E8CF10E0F092CD0567
:10149000E4CF10E0F092E5051092E6050093E70531
:1014A000DCCF10E00093E505F092E6051092E70529
:1014B000D4CF10E01092CF05D0CF6C3221E072076C
:1014C00051F06D32714009F007C696E09BA7C5CF79
:1014D00043E04BA7C2CF85E08BA7BFCF10E060925F
:1014E000CD05BBCF10E00093D005B7CF10E020E0D2
:1014F00030E040E251E4C501B4010E94BC300E94DA
:101500009F310E942F2E6839A3E07A0739F069399C
:10151000734009F0E1C528E02BA79FCFE7E0EBA7D8
:101520009CCF10E00093CE0598CF6E31710509F481
:1015300027CF0A9708F04DCFFA01EF55F54F0C94DD
:10154000E731BA0A3C09BE0AC20AC60ACB0AE9094F
:10155000E909CF0AD30A18E084309105C1F00CF0F4
:1015600038C68130910509F47BCF0CF02AC6892B4F
:1015700011F0B2C510E00093D1056FCF10E0F092EA
:10158000D1056BCF10E00093D20567CF10E08FEF4D
:101590008093D20562CF10E01092D2055ECF10E0AA
:1015A0000093D3055ACF10E01092D30556CFF4E044
:1015B000FBA753CF32E03BA750CF42E04BA75CCE16
:1015C00081E088AB4DCF282A392A56CE91E098ABDE
:1015D00053CEE9A4EAEBEE0DE53108F007C10E2E7B
:1015E000000CFF0BEA50F54F0C94E7310B0B61092F
:1015F000F60B470B470B470B6A0B61096109F60BAA
:10160000740BF60B790B950BA30BF60BF60BF60B85
:10161000BA0BCE0BE20BCDA0DEA0EFA0F8A420E029
:1016200030E0A901B601C7010E94B32D181614F0CD
:101630000093CC058091CF059091CE05992381F040
:10164000882309F4D6C023E333E34BEC51E4B6011D
:10165000C7010E94BC306AAB7BAB8CAB9DAB31CE7B
:10166000882351F023E333E34BEC51E4B601C70187
:101670000E94BC306B017C01C601D7018093D40568
:101680009093D505A093D605B093D7051ACE6DA13A
:101690007EA18FA198A50E2C000CFF08E9E4EE1A9C
:1016A000F1082091CF05222331F023E333E34BEC03
:1016B00051E40E94BC30EE0CFF1CEE0CFF1CE1E07C
:1016C000F0E0EC0FFD1FEE0DFF1D64877587868728
:1016D0009787F7CD6DA17EA18FA198A50E949F311C
:1016E0000E94362E662EEDCD8DA09EA0AFA0B8A490
:1016F000E8CD8DA19EA1AFA1B8A58CA79DA7AEA74F
:10170000BFA78091CF05882309F4DBCD23E333E322
:101710004BEC51E46CA57DA58EA59FA50E94BC3025
:101720006CA77DA78EA79FA7CCCD20E030E0A901B4
:101730006DA17EA18FA198A50E94B32D87FFC1CD79
:101740000093CC05BECDCDA0DEA0EFA0F8A420E094
:1017500030E0A901C701B6010E94B32D87FD0093B7
:10176000CC05C701B6010E949F310E94362E6093BE
:10177000E405A7CD6DA17EA18FA198A52091CF05ED
:10178000222331F023E333E34BEC51E40E94BC30DD
:10179000698F7A8F8B8F9C8F116093CD6DA17EA105
:1017A0008FA198A52091CF05222331F023E333E3C5
:1017B0004BEC51E40E94BC306D8F7E8F8F8F98A3CD
:1017C00012607FCD6DA17EA18FA198A52091CF053C
:1017D000222331F023E333E34BEC51E40E94BC308D
:1017E00069A37AA38BA39CA314606BCD7092CC05E4
:1017F00068CDCAAADBAAECAAFDAA63CD8CE0FE01E3
:101800003196A9EEB5E001900D928A95E1F7EBA52E
:10181000E150E830C8F4F0E0E05FF34F0C94E731BA
:10182000180CCB0C530DEC0D530DEC0DF60D330EC7
:1018300020E030E0A901C501B4010E94B32D87FF6B
:10184000A0C086E08093CC0522FC03C0112309F4DC
:1018500086C02090CE05222009F40DC220E030E0A1
:10186000A9016AA97BA98CA99DA90E94B32D87FF14
:1018700002C28091CD05843009F4BCC486E0809317
:10188000CC05B8A986E0BB2309F445CD8091CD05F0
:10189000823008F0B3C48091CC0581113CCD009119
:1018A000D0054CECC42E45E0D42E7E01F9E1EF0EBC
:1018B000F11CB12CA12C812E912CC4010A2C02C048
:1018C000959587950A94E2F780FFE1C128A9211137
:1018D0001DC0D7014D905D906D907C90002309F460
:1018E000CEC1F60121A532A543A554A5658D768DFF
:1018F000878D90A10E94BE2CA30192010E94BE2C54
:10190000D7016D937D938D939C931397FFEFAF1A3F
:10191000BF0A24E0C20ED11C34E0E30EF11C43E008
:10192000A416B10451F68091CD058BA7843008F040
:10193000B9C1823008F0FDC1882309F4BEC18130ED
:1019400009F4D5C18091CC058111E5CC8CE0FE0174
:101950007996A8EDB5E001900D928A95E1F7809116
:10196000D105882359F00E943A1F1092CB0580912F
:10197000D105823009F05EC30E943E088091CC05FB
:10198000CACC8091BD05873009F45ECFC501B40192
:101990000E943C0759CFC501B4010E949F31A2E0CB
:1019A0006A1619F0B4E16B1206C00E942F2E9B013B
:1019B0006730710528F083E08093CC0510E044CFB8
:1019C000111105C0E2E06E1202C086E0F5CF7B0186
:1019D000F1E0EF1AF108232B19F4E090E805F12C5F
:1019E0007E2CBE016F5F7F4F8E2D0E941E1A8823B2
:1019F00009F490CC9E012F5F3F4F59014E0139E110
:101A0000830E911CD12CC12C012F10E0C8010C2C8D
:101A100002C0959587950A94E2F780FF1AC0D40119
:101A20002D913D914D915C91B4E16B1235C0F60161
:101A3000EE0FFF1FEE0FFF1FE453FA4F648575850D
:101A4000868597850E94BD2CF50160837183828312
:101A50009383BFEFCB1ADB0AE4E0AE0EB11CF4E0D7
:101A60008F0E911C23E0C216D10481F6BE016F5F78
:101A70007F4F872D0E9455198091E8058E151F0410
:101A800009F09CCF8CE0FE013196A9EEB5E0019003
:101A90000D928A95E1F792CFD5012D933D934D9309
:101AA0005C931397D6CF112309F458C00091D00549
:101AB0006CECC62E65E0D62E7E0139E1E30EF11CFA
:101AC000B12CA12C812E912CC4010A2C02C0959519
:101AD00087950A94E2F780FF72C0D7014D905D9020
:101AE0006D907C90002309F462C0F60121A532A517
:101AF00043A554A5658D768D878D90A10E94BE2C3F
:101B0000A30192010E94BE2CD7016D937D938D930A
:101B10009C931397FFEFAF1ABF0A24E0C20ED11CAB
:101B200034E0E30EF11C43E0A416B10469F6A09082
:101B30001307B0901407C0901507D0901607E9A0BE
:101B4000FAA00BA11CA12D8D3E8D4F8D58A1698D42
:101B50007A8D8B8D9C8D812C0E94DA038BA5BE0122
:101B60006F5F7F4F8530B1F587E00E941E1A882392
:101B700009F4D0CBA0901307B0901407C0901507BC
:101B8000D0901607E984FA840B851C852D813E814F
:101B90004F81588569817A818B819C81812C0E943B
:101BA000DA038CE0FE013196A8EDB5E070CFA30119
:101BB0009201F6016485758586859785A3CFF60128
:101BC00084859585A685B785F70180839183A28357
:101BD000B383A0CF86E0C9CF9BA568ED75E087E011
:101BE000963009F086E00E9455192ECE112309F493
:101BF000ECCE5CECE52E55E0F52E5E01A9E1AA0ED7
:101C0000B11CD12CC12C012F10E0C8010C2C02C03A
:101C1000959587950A94E2F780FF17C0F701258D07
:101C2000368D478D50A164857585868597850E9480
:101C3000BD2CD5012D913D914D915C910E94BD2C03
:101C4000F70161A772A783A794A7FFEFCF1ADF0A56
:101C500024E0E20EF11C34E0A30EB11C43E0C416F4
:101C6000D10499F6ABCEE5EFF5E08CE0DF011D92F3
:101C70008A95E9F7E9CDE8A9E11108CE0CCEA301D8
:101C80009201F601648575858685978537CEF601C4
:101C900084859585A685B785F70180839183A28386
:101CA000B38334CE9BA5943009F04CCE112309F4B4
:101CB00049CE86E08093CC0545CE1123D1F3A09088
:101CC0001307B0901407C0901507D0901607E9A02D
:101CD000FAA00BA11CA12D8D3E8D4F8D58A1698DB1
:101CE0007A8D8B8D9C8D812C0E94DA032BCE112353
:101CF00001F321100CC0A091D405AAABB091D50579
:101D0000BBABE091D605ECABF091D705FDABE9A0FC
:101D1000FAA00BA11CA12D8D3E8D4F8D58A1698D70
:101D20007A8D8B8D9C8D822CAAA8BBA8CCA8DDA80F
:101D3000DBCF2091E70528AF81E090E001C0880F5C
:101D40002A95EAF78095182309F4B3CF3090E5057A
:101D5000E32CF12C3091E60539AF032F10E020E0A1
:101D600030E0A9016CA57DA58EA59FA50E94B32D8D
:101D7000D701AA0FBB1FAA0FBB1FB9ABA8ABF801B5
:101D8000EE0FFF1FEE0FFF1FFFABEEAB811134C054
:101D9000E1E0F0E0EC0FFD1FEA0FFB1FC484D584E7
:101DA000E684F784E1E0F0E0EC0FFD1F2EA93FA9E7
:101DB000E20FF31F84849584A684B78420E030E08A
:101DC000A901C701B6010E94B32D81110AC020E00C
:101DD00030E0A901C501B4010E94B32D882309F4A4
:101DE00068CFA5019401C701B6010E94E82F6CA736
:101DF0007DA78EA79FA7EAC0A1E0B0E0AC0FBD1FF2
:101E000088A999A9A80FB91FF701EE0FFF1FEE0FC0
:101E1000FF1FE852FA4F2081318142815381589649
:101E20006D917D918D919C915B970E94BD2C6B0172
:101E30007C01E1E0F0E0EC0FFD1FAEA9BFA9EA0FC5
:101E4000FB1F000F111F000F111FD801A852BA4F1E
:101E50002D913D914D915C91608D718D828D938D11
:101E60000E94BD2C2B013C01FE013D968CE0DF0160
:101E70001D928A95E9F720E030E040E850E46CA537
:101E80007DA58EA59FA50E94BC302CA53DA54EA585
:101E90005FA50E94BC304B015C01A7019601C70100
:101EA000B6010E94BC309B01AC01C501B4010E9487
:101EB000BD2C4B015C01A3019201C301B2010E9440
:101EC000BC309B01AC01C501B4010E94BD2C4B018B
:101ED0005C0120E030E0A9010E94B32D87FF04C01F
:101EE00084E08093CC0517CAC501B4010E945B3120
:101EF0004B015C01A3019201C701B6010E94E82FCA
:101F00009B01AC01C501B40190580E94BD2D4B014D
:101F10005C01BBA5B33021F4B7FAB094B7F8B09424
:101F200020E030E0A9016CA57DA58EA59FA50E94AB
:101F3000B32D87FF0DC0B7FAB094B7F8B0948CA555
:101F40009DA5AEA5BFA5B0588CA79DA7AEA7BFA75E
:101F500001E010E00C0F1D1FA8A9B9A90A0F1B1F53
:101F6000A3019201C501B4010E94BC309B01AC01E8
:101F7000C701B6010E94BD2C20E030E040E05FE3E5
:101F80000E94BC30F801648775878687978701E0D7
:101F900010E00C0F1D1F2EA93FA9020F131FA70150
:101FA0009601C501B4010E94BC30A30192010E94B8
:101FB000BE2C20E030E040E05FE30E94BC30D8015E
:101FC0001C966D937D938D939C931F9781E0BBA589
:101FD000B23009F080E021100CC0E091D405EAABEA
:101FE000F091D505FBAB2091D6052CAB3091D705F0
:101FF0003DAB8F934FA54F938EA58F939DA59F9338
:10200000ACA5AF93822CAAA8BBA8CCA8DDA8E8AC4D
:1020100009AD232DAE01435F5F4FBE01675E7F4F69
:1020200088ED95E00E944D040F900F900F900F9057
:102030000F9088CC1092D105A1CC8CE06CC913E034
:10204000F6C98230910509F421CA039709F044C00A
:10205000E092CD0502CA8231910509F41BCA6CF4E5
:102060008A30910509F4A6CA4197B1F51092E505A9
:102070000093E605F092E705F0C98331910509F474
:1020800011CA449749F50093CF05E7C980359105FA
:1020900009F425CA54F58533910509F491CAFCF475
:1020A0008C31910511F04E97B9F420E030E040E218
:1020B00051E4C501B4010E94BC300E949F310E94CE
:1020C0002F2E6931B1E07B0709F471CA0CF0F5C914
:1020D0006831714009F4FCC9E092CC05BEC9CC97C7
:1020E000DCF746534093E805B8C98C35910509F4EF
:1020F000FEC954F48A35910509F4F5C98B3591056B
:1021000059F71092D005A9C98D35910509F40ACA6D
:102110008E35910509F71092CE059FC9B1E0BBA796
:102120009FC98230910509F4B0C910E0039709F402
:102130008FCF4FC98231910509F4ABC94CF48A3075
:10214000910509F43ACA10E0419709F48FCF41C9CB
:102150008331910509F4A5C910E0449709F493CFA0
:1021600038C98035910509F4B9C97CF485339105E6
:1021700009F42CCA2CF410E04C9709F496CF29C925
:1021800010E0CC970CF4ADCF24C98C35910509F43F
:10219000ADC954F48A35910509F4A4C910E08B3512
:1021A000910509F4AECF15C98D35910509F4B9C96A
:1021B00010E08E35910509F4AECF0BC9E1E0EBA735
:1021C0005BC88230910509F4DAC9039709F4DBC9C9
:1021D00083CF8830910509F4E3C924F4059709F405
:1021E000DBC97ACF8930910509F4DEC94E9709F42D
:1021F000C6C972CFF8A9FF2309F44DCB86E08093BE
:10220000CC0549CB2C98089510920001249A259A68
:102210000C940211CF93C82F082E000C990B20911B
:1022200000012817190649F00E943A1FCC2349F0F3
:1022300034F02D982C9AC0930001CF9108952D9AD7
:10224000F9CF0E940211F7CF43980895109201012F
:102250003B9A0C942411CF93C82F809101018C17C5
:1022600039F00E943A1FC13029F4439AC09301010A
:10227000CF9108950E942411F9CFE0ECF0E0808125
:102280008D7F80831092C50087E68093C400E1ECC7
:10229000F0E080818061808380818860808380819C
:1022A000806880830895E091030191E09E0F90344F
:1022B00009F490E020910201291761F0F0E0EF5F4E
:1022C000F94F8083909303018091C10080628093D5
:1022D000C10004C02091BE0524FFECCF08951F92D9
:1022E0000F920FB60F9211248F939F93EF93FF934A
:1022F00080910201E82FF0E0EF5FF94F9081909319
:10230000C6008F5F803409F480E0809302019091D1
:102310000301981305C08091C1008F7D8093C10097
:10232000FF91EF919F918F910F900FBE0F901F9093
:1023300018959091040180910501891761F0E92FAA
:10234000F0E0EF57F94F80819F5F903809F490E0FB
:102350009093040108958FEF08951F920F920FB686
:102360000F9211242F933F934F935F936F937F931B
:102370008F939F93AF93BF93EF93FF938091C6008A
:10238000813299F1A0F48831A1F1E091050191E049
:102390009E0F903809F490E0209104012917A1F0D4
:1023A000F0E0EF57F94F8083909305010DC08F3314
:1023B00031F08E3751F78091BE05826003C0809165
:1023C000BE0581608093BE05FF91EF91BF91AF91F3
:1023D0009F918F917F916F915F914F913F912F913D
:1023E0000F900FBE0F901F9018958091BE058860CA
:1023F000E9CF0E943E08E8CF809105018093040157
:10240000089510920701109206010E94322987B1A7
:10241000887F87B988B1876088B9ECE6F0E0808171
:1024200087608083E8E6F0E08081826080830895A1
:10243000CF93C0E068E071E08C2F0E94011A8111F7
:1024400009C08AE00E94A528C13011F4CF910895F7
:10245000C1E0F0CF809108018823B1F388E091E0DA
:102460000E943B2788E091E00E94FC08EBCF1F927E
:102470000F920FB60F9211242F933F934F935F93B8
:102480006F937F938F939F93AF93BF93EF93FF933C
:1024900086B190E08095909587709927892B21F0DF
:1024A000309913C00E943E08FF91EF91BF91AF9108
:1024B0009F918F917F916F915F914F913F912F915C
:1024C0000F900FBE0F901F901895319906C0809104
:1024D000BE0588608093BE05E7CF3299E5CF809135
:1024E000BE058260F7CFCF938091BE05882319F196
:1024F000C091BE058C2F8076C9F086E08093BD0523
:10250000C6FF1BC08FEF0E94F22881E00E940C29B9
:102510008091BE058F7E8093BE058091BE0584FFAD
:10252000FCCF8091BE058F798093BE05C4FF09C0A2
:1025300081E08093BC05CF9108958EEF0E94F22830
:10254000F0CFC0FF07C00E94D02B8091BE058E7FC8
:102550008093BE05C3FF07C00E9457188091BE0537
:10256000877F8093BE05C2FF07C00E9461188091DB
:10257000BE058B7F8093BE05C1FFDDCF0E944D1845
:102580008091240781FF03C081E08093CB05809177
:10259000BE058D7F8093BE05CECFCF92DF92EF92A6
:1025A000FF921F93CF93DF93CDB7DEB729970FB676
:1025B000F894DEBF0FBECDBF7C01FC018081843268
:1025C00009F00DC181E089878181833409F45EC0FF
:1025D0005CF4833209F44AC0843281F181110BC06A
:1025E0000E94362910E030C0883409F469C094F4A0
:1025F000873409F443C010E0AE014B5F5F4FBE016A
:10260000675F7F4FC7010E94CE23892B09F090C0DE
:1026100011E01AC08E3409F467C0883561F782E092
:102620008987828181110FC08091BD058630D1F6E6
:1026300083E00E940C291092BD05D4CF82E08987E7
:102640008281882381F013E0812F29960FB6F894B8
:10265000DEBF0FBECDBFDF91CF911F91FF90EF90F6
:10266000DF90CF9008950E943A29BCCF82E08987FD
:1026700082818111E8CF0E94492AB4CF82E0898704
:1026800082818111E0CF0E94F12AACCF82E089875C
:1026900082818111D8CF1091BD05173031F40E948D
:1026A0003E0885E00E940C299DCF112311F01BE00C
:1026B000CBCF87E08093BD0584E00E940C29C4CF76
:1026C0008091240717E084FFBFCF8091BD05882348
:1026D00011F0863061F70E9495071091BC05111129
:1026E00081CF0E941812B0CF82E089878281811148
:1026F0001DC0B7010E94011A882381F0B70180E054
:102700000E94B32BB70181E00E94011A182F882381
:1027100049F0B70181E00E94B32B64CF8AE00E94A8
:10272000A528F0CF8AE00E94A5288ECF11E064CFC3
:10273000E98581E08E0F8987EE0DFF2DF11D9081D7
:102740009D3309F080CF112331F1482F50E0282F1D
:1027500030E0D701A20FB31F9C91241B350BF7016A
:10276000E20FF31F90838F5F9C919111F0CF8987C7
:10277000C7010E94FC08182F811166CF6D817E81F0
:102780008F8198850E949F310E94362E862FB70137
:102790000E944C1959CFAE014F5F5F4FBE01675F7A
:1027A0007F4FC7010E94CE23892B09F431CF898541
:1027B000E80EF11CF7018081811145CFC980DA80D4
:1027C000EB80FC806D817E818F8198850E942F2E09
:1027D000CB01B701A6010E94641A182F35CFC7019B
:1027E0000E94FC08FACFCF93C1E00E9499118F3F5D
:1027F00011F4CF9108958A3011F08D30D1F40E94F8
:1028000073128091BC058111F4CFE091070180E043
:10281000EE2341F0F0E0E85FFE4F108288E091E0A7
:102820000E94CD120E94A528109207011092060165
:10283000DCCF90910601992319F08932B1F6F6CFD9
:10284000813298F28F3289F2883219F4C0930601EE
:10285000CCCFE0910701E53410F08DE0E3CF21E02B
:102860002E0FF0E0E85FFE4F9FE9980F20930701DD
:102870009A3108F480528083B8CF80916B01909197
:102880006C01A0916D01B0916E0140916701509172
:1028900068016091690170916A01840F951FA61FFC
:1028A000B71F813022EE920724E0A207B10550F451
:1028B00080936B0190936C01A0936D01B0936E01B6
:1028C00080E00895925EA440B10980936B019093DB
:1028D0006C01A0936D01B0936E0181E008959B019E
:1028E000AC01203283E038074105510520F420E295
:1028F00033E040E050E060E070E788E399E30E9455
:10290000C531B90191E02115310581E04807510534
:10291000B0F02115310588E04807510518F563E04E
:1029200056954795379527956A95D1F7B901E3E014
:10293000220F331F441F551FEA95D1F792E0809173
:102940008100887F892B8093810070938900609338
:102950008800209367013093680140936901509388
:102960006A01089586E056954795379527958A958B
:10297000D1F7B90196E0220F331F441F551F9A95D6
:10298000D1F793E0DCCF8091240782FF17C0289A0B
:102990008091BD05833089F48091170780934F01A2
:1029A00080910E078250990B880F8195809350017A
:1029B00080916F00826080936F0008952898E8CF1F
:1029C00080916F008D7F80936F00809134078F3FDF
:1029D00021F49091BE0595FF0AC090E00E948224E8
:1029E0008091240782FF02C028980895289A0895AC
:1029F0001F920F920FB60F9211240F931F932F93D4
:102A00003F934F935F936F937F938F939F93AF9376
:102A1000BF93CF93DF93EF93FF9380914E0181118A
:102A2000C8C19BB180914F01807E9F71892B8BB96A
:102A30008BB1837E90914F01892B8BB9809150018E
:102A40008093B20082E08093B10081E080934E01D8
:102A500078948091510190915201892B09F077C0AF
:102A60000E94201FEC019093520180935101892B09
:102A700009F4B4C18091BD058330D1F46BA17CA170
:102A80008DA19EA160936F0170937001809371017D
:102A9000909372010E946F1480E091E7A2E0B0E091
:102AA00080936B0190936C01A0936D01B0936E01C4
:102AB0004BA55CA56DA57EA5DB01CA01B595A795C3
:102AC00097958795840F951FA61FB71F8093730155
:102AD00090937401A0937501B09376014D855E8546
:102AE0006F857889DB01CA01B595A795979587957C
:102AF000B095A095909581959F4FAF4FBF4F809314
:102B0000530190935401A0935501B09356018093C3
:102B1000570190935801A0935901B0935A018093A3
:102B20005B0190935C01A0935D01B0935E014093C3
:102B30005F01509360016093610170936201109294
:102B40006301109264011092650110926601C091B8
:102B50005101D0915201209709F422C1288120937C
:102B60004F018091530190915401A0915501B09172
:102B7000560149815A816B817C81840F951FA61F64
:102B8000B71F8093530190935401A0935501B093C4
:102B90005601181619061A061B066CF5322F3460FA
:102BA00030934F0140915F0150916001609161014C
:102BB00070916201841B950BA60BB70B8093530198
:102BC00090935401A0935501B09356018091BF0595
:102BD0009091C005A091C105B091C20525FF06C125
:102BE0000197A109B1098093BF059093C005A093F7
:102BF000C105B093C2058091570190915801A091F1
:102C00005901B0915A014D815E816F817885840FA1
:102C1000951FA61FB71F8093570190935801A0934B
:102C20005901B0935A01181619061A061B067CF5AD
:102C300020914F01322F386030934F0140915F0156
:102C4000509160016091610170916201841B950B4C
:102C5000A60BB70B8093570190935801A09359018D
:102C6000B0935A018091C3059091C405A091C50508
:102C7000B091C60526FFBEC00197A109B109809396
:102C8000C3059093C405A093C505B093C605809174
:102C90005B0190915C01A0915D01B0915E0149855D
:102CA0005A856B857C85840F951FA61FB71F80935F
:102CB0005B0190935C01A0935D01B0935E011816D7
:102CC00019061A061B0674F520914F012061209306
:102CD0004F0140915F0150916001609161017091DD
:102CE0006201841B950BA60BB70B80935B0190933D
:102CF0005C01A0935D01B0935E018091C705909146
:102D0000C805A091C905B091CA0527FF77C00197F2
:102D1000A109B1098093C7059093C805A093C9057F
:102D2000B093CA058091630190916401A0916501FF
:102D3000B09166010196A11DB11D8093630190932E
:102D40006401A0936501B09366014D855E856F8532
:102D5000788984179507A607B70708F03FC1209127
:102D6000BD05243009F05DC00E943D148823C1F0E8
:102D700080916F0190917001A0917101B0917201E9
:102D80000BA51CA52DA53EA5081719072A073B076B
:102D9000C8F10E94E0148091BE0584608093BE0556
:102DA00080914F0190911707892780934F011092CE
:102DB0004E01FF91EF91DF91CF91BF91AF919F9124
:102DC0008F917F916F915F914F913F912F911F91C3
:102DD0000F910F900FBE0F901F9018950E94E01456
:102DE0008091BE0584608093BE05B1CE0196A11D81
:102DF000B11DF9CE0196A11DB11D41CF0196A11DB6
:102E0000B11D88CFBC01CD01601B710B820B930BF0
:102E100060936F01709370018093710190937201C0
:102E20003FC04FA558A969A97AA984179507A60795
:102E3000B707C8F50E943D14882309F4B1CF8091EB
:102E40006F0190917001A0917101B09172014BA539
:102E50005CA56DA57EA5840F951FA61FB71F809347
:102E60006F0190937001A0937101B09372014FA90B
:102E700058AD69AD7AAD84179507A607B70740F03E
:102E800040936F01509370016093710170937201D0
:102E900060916F0170917001809171019091720148
:102EA0000E946F147DCF4BA95CA96DA97EA98417E0
:102EB0009507A607B70708F47EC084179507A607ED
:102EC000B70779F540916F015091700160917101E0
:102ED000709172018FA998ADA9ADBAAD4817590785
:102EE0006A077B0769F480E091E7A2E0B0E0809395
:102EF0006B0190936C01A0936D01B0936E0150CF64
:102F000040916B0150916C0160916D0170916E0167
:102F100080E092EEA4E0B0E0841B950BA60BB70B0B
:102F2000E6CF0E943D14882309F43ACF80916F01C7
:102F300090917001A0917101B09172014091730163
:102F4000509174016091750170917601481759078D
:102F50006A077B0758F54BA55CA56DA57EA5841B6C
:102F6000950BA60BB70B80936F0190937001A09304
:102F70007101B09372018FA198A5A9A5BAA540913E
:102F80006F01509170016091710170917201481749
:102F900059076A077B0708F07BCF80936F019093F6
:102FA0007001A0937101B093720172CFB695A7958D
:102FB00097958795D8CF6FA978AD89AD9AAD0091D7
:102FC0006F0110917001209171013091720106170B
:102FD00017072807390709F4E3CE1ACF10925201D8
:102FE000109251010E94111FDBCE1F920F920FB65B
:102FF0000F9211248F939F939BB1809117078C712F
:10300000937E892B8BB91092B1009F918F910F9075
:103010000FBE0F901F901895E3E5F1E084E2DF0109
:103020001D928A95E9F760E273E080E090E00E94EB
:103030006F14109252011092510110924E01089596
:103040008AB18C6F8AB98BB1837090911707892BE5
:103050008BB9209AE1E8F0E080818F7E80838081C7
:1030600088608083E0E8F0E080818D7F80838081CC
:103070008E7F808380818F73808380818F7C80832B
:103080001092B0001092B100E0E7F0E08081816022
:1030900080830E94C3140C94E0148091BD0582309B
:1030A00029F483E08093BD050C94C31408958091A6
:1030B000BD05833029F484E08093BD051092CB05D3
:1030C00008950F931F93E0915101F09152013097B1
:1030D000C9F1658576858785908900916301109196
:1030E00064012091650130916601601B710B820BB8
:1030F000930B0E94802310926F0110927001109226
:1031000071011092720160E070E0CB010E946F14B7
:1031100080E091E7A2E0B0E080936B0190936C01B6
:10312000A0936D01B0936E0110926301109264013F
:10313000109265011092660182E08093BD051F9197
:103140000F9108951092BD05FACFF999FECF92BD67
:1031500081BD81E08FBB80B50895F894F999FECFC9
:1031600092BD81BD81E08FBB20B5862F8227082EBE
:10317000000C990B50E086239523892B49F084E1BC
:103180006F3F11F060BD84E08FBBF99A7894089589
:103190002617E1F360BD84E2F7CF9F92AF92BF9212
:1031A000CF92DF92EF92FF920F931F93CF93DF9313
:1031B0005C018A017B01E40EF51EEB01912C6C0190
:1031C000C61AD70ACE018C0D9D1DCE15DF0589F4D8
:1031D000692DC501800F911FDF91CF911F910F9134
:1031E000FF90EF90DF90CF90BF90AF909F900C94A6
:1031F000AD1821E0911007C0292D990C330B232F16
:10320000221F2227221F6991962E920E0E94AD182E
:10321000D9CF9F92AF92BF92CF92DF92EF92FF925F
:103220000F931F93CF93DF935B018A017C01E40E20
:10323000F51EEC01912C6B01C81AD90AC6018C0F3E
:103240009D1FCE15DF05C1F4C501800F911F0E949F
:10325000A51821E030E0891511F030E020E0C90127
:10326000DF91CF911F910F91FF90EF90DF90CF9062
:10327000BF90AF909F9008950E94A51821E09110F3
:1032800007C0292D990C330B232F221F2227221F21
:10329000982E920E8993D2CF27E4829FC0011124E9
:1032A00046E450E09D5F0C94CD182DE0829FC00154
:1032B00011244CE050E09E5F0C94CD1865E090E046
:1032C00080E00E94AD1846E350E061E077E081E0E5
:1032D00090E00C94CD18882309F45AC080E090E067
:1032E000AAE7B3E48093010790930207A093030732
:1032F000B09304078093050790930607A0930707F0
:10330000B09308078093090790930A07A0930B07CF
:10331000B0930C072AE020930E0780930F07909339
:103320001007A0931107B093120780E090E0AAEF76
:10333000B3E48093130790931407A0931507B093F9
:10334000160780E090EAACE0B7E480931C07909306
:103350001D07A0931E07B0931F078DEC9CECACECEF
:10336000BDE38093180790931907A0931A07B093B1
:103370001B0780EC809317078DEC9CECACE4BDE35D
:103380008093200790932107A0932207B0932307EF
:1033900082E0809324071092250780E090E0A8EC5B
:1033A000B1E48093260790932707A0932807B09352
:1033B000290780E090E0AAE7B3E480932A0790937E
:1033C0002B07A0932C07B0932D0784E690E09093F1
:1033D0002F0780932E0780E090E0A0E8BFE3809362
:1033E000300790933107A0933207B093330789E1F8
:1033F0008093340793E090933507809336070C94BD
:103400005E191F93CF93DF93182FEB0187E4189F6A
:10341000B00111247D5F46E450E0CE010E940919FD
:10342000892B51F41882BE01812F0E944C1980E033
:10343000DF91CF911F91089581E0FACF1F93CF9331
:10344000DF93182FEB018DE0189FB00111247E5FF0
:103450004CE050E0CE010E940919892B71F48CE0F8
:10346000FE0111928A95E9F7BE01812F0E9455193C
:1034700080E0DF91CF911F91089581E0FACF90E035
:1034800080E00E94A518853071F446E350E061E0C9
:1034900070E081E097E00E94091921E0892B09F48E
:1034A00020E0822F08958530D8F743E250E061E0B4
:1034B00070E081E097E00E940919892B89F380E090
:1034C0000E946B1921E0EDCFCF92DF92EF92FF9235
:1034D000CF93DF93EC016A017B0186E0C731D10510
:1034E00008F033C0FE01E958F54E0C94E7318E1A0E
:1034F0008E1A8E1AAC1ABF1AC81AD11ADA1AE31A1F
:10350000FA1A051B0E1B171B201B311B401B4F1BE0
:10351000621B711B7A1B831B8C1B971B20E030E006
:10352000A901CB01B6010E94B32D18160CF008C1F9
:10353000CC0FDD1FCC0FDD1FCF5FD84FC882D982E3
:10354000EA82FB820E945E1980E0DF91CF91FF90BA
:10355000EF90DF90CF90089520E030E040E450E419
:10356000CB01B6010E94B32D87FDECC0C701B601A7
:103570000E9429310E94362E60930E07E3CFC0923D
:103580000F07D0921007E0921107F0921207DACFDE
:10359000C0921307D0921407E0921507F092160715
:1035A000D1CFCB01BA010E949F310E94362E609389
:1035B0001707C8CFCB01BA010E9429310E94362ECD
:1035C00060933407BFCF20E030E040E752E4CB0106
:1035D000B6010E94BC3020E030E040E752E40E9497
:1035E000BC3060931C0770931D0780931E07909357
:1035F0001F07A8CFE894F7F8C0922007D0922107C0
:10360000E0922207F09223079DCFC0921807D09234
:103610001907E0921A07F0921B0794CFCB01BA0169
:103620000E9429310E94362E609336078BCFCB0142
:10363000BA010E9429310E94362E6093350782CF4D
:10364000C091240720E030E0A901CB01B6010E941F
:10365000B32D882321F0C160C093240773CFCE7FA0
:10366000FBCFC091240720E030E0A901CB01B601D7
:103670000E94B32D882311F0C260EECFCD7FECCF36
:10368000C091240720E030E0A901CB01B6010E94DF
:10369000B32D882311F0C460DFCFCB7FDDCFC09185
:1036A000240720E030E0A901CB01B6010E94B32D30
:1036B000882331F0C860C09324070E94A62642CF19
:1036C000C77FF9CFC091240720E030E0A901CB01EA
:1036D000B6010E94B32D882311F0C061BDCFCF7E0B
:1036E000BBCFCB01BA010E949F310E94362E60935E
:1036F000250728CFC0922607D0922707E0922807F7
:10370000F09229071FCFC0922A07D0922B07E09290
:103710002C07F0922D0716CFCB01BA010E94293158
:103720000E94362E70932F0760932E070BCFC09206
:103730003007D0923107E0923207F092330702CF80
:1037400088E003CF89E001CF1F93CF93DF93CDB7FC
:10375000DEB72C970FB6F894DEBF0FBECDBF0E9428
:103760003F1A811108C08AE00E94A52881E00E94CA
:103770006B190E943A2910E0BE016F5F7F4F812FC5
:103780000E941E1A811103C08AE00E94A5281F5FB3
:10379000183091F72C960FB6F894DEBF0FBECDBF50
:1037A000DF91CF911F9108954F925F926F927F9218
:1037B0008F929F92AF92BF92CF92DF92EF92FF9241
:1037C0000F931F93CF93DF93CDB7DEB762970FB6FA
:1037D000F894DEBF0FBECDBF9A8B898B2A013B01C7
:1037E0005901FC0167A970AD81AD92AD0E94652EB3
:1037F0006B017C01A30192010E94BC300E949C2DB0
:103800000E94362E2B013C01E989FA8943A254A279
:1038100065A276A2A5019801C701B6010E94BC303D
:103820000E949C2D0E94362E4B015C01E989FA8989
:1038300087A290A6A1A6B2A623A534A545A556A504
:10384000A2E3B0E00E94ED310E94672E20E030E05C
:1038500040E752E40E94BC300E942F2E69837A8395
:103860008B839C830E94672E6D837E838F839887D2
:10387000C301B2010E94652E2B013C01A7019601F4
:10388000C701B6010E94BC306B017C01A30192010B
:10389000C301B2010E94BC3069877A878B879C87FD
:1038A0002D813E814F815885CA01B9010E94BE2CED
:1038B0006D877E878F87988B29853A854B855C85B8
:1038C000C701B6010E94BD2C2D853E854F855889C4
:1038D0000E94BD2D0E949C2D0E942F2E2B013C0189
:1038E000C501B4010E94652E9B01AC010E94BC3051
:1038F0004B015C01A70196010E94BD2C6B017C016C
:1039000069817A818B819C81909580957095619574
:103910007F4F8F4F9F4F0E94672E9B01AC010E94EB
:10392000BE2C9B01AC01C701B6010E94BD2D0E94B7
:10393000A22EE989FA89C584D684E784F088A70194
:103940009601241935094609570929833A834B837F
:103950005C830E942F2E29813A814B815C81261B3A
:10396000370B480B590BDA01C901B7FF3BC0C70140
:10397000B6010E94672E2D853E854F8558890E948D
:10398000BC3029853A854B855C850E94BD2CA501FC
:1039900094010E94BE2C4B015C0120E030E040E825
:1039A00050E46D817E818F8198850E94BC309B019F
:1039B000AC01C501B4010E94BD2D0E949C2D0E9446
:1039C0002F2E97FF03C060E070E0CB012601370186
:1039D000641575058605970514F42B013C0180E0FC
:1039E00090E0DC01E989FA8947A650AA61AA72AA87
:1039F000840D951DA61DB71D83AB94ABA5ABB6ABCF
:103A000062960FB6F894DEBF0FBECDBFDF91CF91A7
:103A10001F910F91FF90EF90DF90CF90BF90AF90EC
:103A20009F908F907F906F905F904F9008954F92EE
:103A30005F926F927F928F929F92AF92BF92CF923E
:103A4000DF92EF92FF920F931F93CF93DF93F0904B
:103A50009401D0E0C0E08BE3E82E809195018F11B6
:103A60002EC0C988DA88EB88FC88A701960160E03F
:103A700070E0CB010E94BD2D4B015C01A7019601B6
:103A80006D897E898F89988D0E94BD2DAB01BC0107
:103A900095018401CE010E94D41B19A2DF91CF9120
:103AA0001F910F91FF90EF90DF90CF90BF90AF905C
:103AB0009F908F907F906F905F904F9008958F2D83
:103AC00090E0FE9C90011124A9014A565E4F6A01C4
:103AD000209761F129A1211104C0FA0121A122231B
:103AE00029F189889A88AB88BC88E89EF001E99E14
:103AF000F00D1124EA56FE4FA501940165897689DF
:103B00008789908D0E94BD2D2B013C01A501940158
:103B10006D897E898F89988D0E94BD2DAB01BC0176
:103B200093018201CE010E94D41B19A2F39452E1A9
:103B3000F51201C0F12CE60190CF2F923F924F92E7
:103B40005F926F927F928F929F92AF92BF92CF922D
:103B5000DF92EF92FF920F931F93CF93DF93109119
:103B6000950140901C0750901D0760901E077090B3
:103B70001F0777FA709477F87094B12CA12CD0E0DD
:103B8000C0E0CC24C39480919401811313C0DF91D1
:103B9000CF911F910F91FF90EF90DF90CF90BF904A
:103BA000AF909F908F907F906F905F904F903F90DD
:103BB0002F900895111101C012E111502BE3129FB3
:103BC000C0011124FC01EA56FE4F1F01209709F4A1
:103BD0005CC0A114B10409F458C0D98CEA8CFB8CE8
:103BE0000C8D2D2D3E2D4F2D502F6D897E898F8967
:103BF000988D0E94B32D882309F447C08AA18111B2
:103C00003BC0F50185889688A788B08CA5019401F2
:103C10006D2D7E2D8F2D902F0E94D52F181664F5B7
:103C2000A5019401C501B4010E94BC304B015C01A7
:103C3000A3019201C301B2010E94BE2C2D8D3E8DC5
:103C40004F8D58A10E94BC309B01AC01C501B4014D
:103C50000E94BD2C0E945B314B015C019B01AC01B9
:103C60006D2D7E2D8F2D902F0E94B32D87FD04C0CA
:103C7000D82CE92CFA2C0B2D8D2D9E2DAF2DB02F8D
:103C80008D8B9E8BAF8BB88FC9A25E01E1017BCF7C
:103C90004F925F926F927F92AF92BF92CF92DF92DC
:103CA000EF92FF920F931F93CF93DF938C01EB0161
:103CB000FC01458856886788708CAD88BE88CF889F
:103CC000D88C9501A601C301B2010E94B32D87FFD4
:103CD00040C0A3019201C301B2010E94BC302B017C
:103CE0003C0160911C0770911D0780911E07909107
:103CF0001F0790589B01AC010E94BE2CF801258D36
:103D0000368D478D50A10E94BC309B01AC01C30190
:103D1000B2010E94BD2C0E945B317B018C019B0192
:103D2000AC01B501C6010E94B32D87FF02C0750129
:103D300086019701A801B501C6010E94B32D882311
:103D400041F0C701D8018D8B9E8BAF8BB88F81E07E
:103D500089A3DF91CF911F910F91FF90EF90DF909A
:103D6000CF90BF90AF907F906F905F904F900895ED
:103D7000EF92FF920F931F93CF93DF93C091940123
:103D800010E0D0E090E080E00BE3209195012C134F
:103D900010C0009741F1FC0122A1211124C0612F24
:103DA0007D2FDF91CF911F910F91FF90EF900C9499
:103DB000481EC09F90011124A9014A565E4F7A0106
:103DC000009741F0FC0122A1211104C0612F7D2F39
:103DD0000E94481ECF5FC23109F4C0E0812F9D2FA1
:103DE0001E2DDF2DD2CFDF91CF911F910F91FF902C
:103DF000EF900895809195018093940180919501B1
:103E00008F5F823109F480E08093930108950E94CE
:103E1000FA1EE7E7F1E08CE1DF011D928A95E9F7F0
:103E200008959091950180919401981741F08091A7
:103E300094018F5F823109F480E0809394010895AA
:103E40009091950180919401981749F08091940187
:103E50002BE3829FC00111248A569E4F089590E063
:103E600080E008959091940181E0209193012913BD
:103E700080E008950E94201F892B21F48091BD05C8
:103E8000833031F40E9473128091BC05882391F332
:103E900008952F923F924F925F926F927F928F92EE
:103EA0009F92AF92BF92CF92DF92EF92FF920F93C9
:103EB0001F93CF93DF93CDB7DEB7E1970FB6F8949A
:103EC000DEBF0FBECDBF29013A01E982FA820B8322
:103ED0001C83AD8EBE8ECF8ED8A289AA209195016B
:103EE000222E312CE0900107F09002070091030789
:103EF00010910407ED82FE820F8318879B01AC01AD
:103F0000C801B7010E94BC300E9489306DA37EA316
:103F10008FA398A7E0900507F09006070091070788
:103F200010910807E986FA860B871C87A301920186
:103F3000C801B7010E94BC300E94893069A77AA7E6
:103F40008BA79CA74090090750900A0760900B0729
:103F500070900C074D865E866F86788A29813A813B
:103F60004B815C81C301B2010E94BC300E94893048
:103F70006DA77EA78FA798AB8BE3829DF001839DF1
:103F8000F00D1124EA56FE4F1082409177015091B6
:103F900078016091790170917A01EDA0FEA00FA1E6
:103FA00018A5E416F5060607170714F480E28083C7
:103FB000C0907B01D0907C01E0907D01F0907E016B
:103FC00049A45AA46BA47CA44C145D046E047F0421
:103FD0005CF48BE3829DF001839DF00D1124EA5681
:103FE000FE4F80818064808300917F011091800169
:103FF0002091810130918201098B1A8B2B8B3C8B94
:104000004DA45EA46FA478A84016510662067306FC
:104010005CF48BE3829DF001839DF00D1124EA5640
:10402000FE4F8081806880834DA05EA06FA078A441
:10403000441A550A660A770AC301B20197FF07C0FE
:10404000442455243201461A570A680A790A4BE378
:10405000429D9001439D300D11242A563E4FD901B7
:1040600011964D925D926D927C92149789A49AA4B8
:10407000ABA4BCA48C189D08AE08BF0889829A82A4
:10408000AB82BC82B7FE0BC0EE24FF248701E81888
:10409000F9080A091B09E982FA820B831C834BE3A6
:1040A000429D9001439D300D11242A563E4FE980D8
:1040B000FA800B811C81D9011596ED92FD920D932A
:1040C0001C931897CDA4DEA4EFA4F8A809891A8937
:1040D0002B893C89C01AD10AE20AF30ACD8ADE8A0A
:1040E000EF8AF88EF7FE0BC022273327A9012C197F
:1040F0003D094E095F092D8B3E8B4F8B588FEBE3AB
:10410000E29DA001E39D500D11244A565E4F0D899A
:104110001E892F89388DDA0119960D931D932D93E1
:104120003C931C97498A5A8A6B8A7C8A09811A8136
:104130002B813C81401651066206730620F4098BE0
:104140001A8B2B8B3C8B49885A886B887C882D89ED
:104150003E894F89588D421653066406750610F441
:1041600029013A012BE3229D8001239D100D11248A
:104170000A561E4FD8011D964D925D926D927C920B
:104180005097411451046104710409F489C20E94DA
:10419000672E2D813E814F8158850E94BD2D6D8BEC
:1041A0007E8B8F8B988FC501B4010E94672E298565
:1041B0003A854B855C850E94BD2D698F7A8F8B8FE8
:1041C0009C8FC701B6010E94672E2D853E854F85C5
:1041D00058890E94BD2D69A37AA38BA39CA32D8926
:1041E0003E894F89588DCA01B9010E94BC306B01CC
:1041F0007C01298D3A8D4B8D5C8DCA01B9010E94DD
:10420000BC309B01AC01C701B6010E94BE2C6B0102
:104210007C0129A13AA14BA15CA1CA01B9010E946C
:10422000BC309B01AC01C701B6010E94BE2C0E94AC
:104230005B31698B7A8B8B8B9C8BF801658F768FCA
:10424000878F90A39B01AC0160E070E080E89FE362
:104250000E94BD2D6B017C0109A92D8D3E8D4F8DD6
:1042600058A101110EC20E94BC304B015C01AC018F
:104270009B0169897A898B899C890E94BC306983FA
:104280007D8389879D878BE3829D8001839D100DAF
:1042900011240A561E4FCB01A985BD85F801818BDB
:1042A000928BA38BB48BC301B2010E94672E2B01AA
:1042B0003C01A50194010E94BC300E949C2D0E94EB
:1042C000362ED801D7966D937D938D939C93DA9774
:1042D00020911C0730911D0740911E0750911F0728
:1042E0002D8F3E8F4F8F58A3A7019601C301B201B6
:1042F0000E94BC302D8D3E8D4F8D58A10E94BC3048
:1043000020E030E84BE355E40E94BD2D0E949C2D37
:104310000E942F2ED8019B966D937D938D939C9335
:104320009E97A70196016D897E898F89988D0E943D
:10433000BC306D8B7E8B8F8B988FA7019601698D1A
:104340007A8D8B8D9C8D0E94BC30698F7A8F8B8F7C
:104350009C8FA701960169A17AA18BA19CA10E94C3
:10436000BC302B013C0190919501809194019817EC
:1043700009F48EC1E0908F01F090900100919101BD
:104380001091920120E030E0A901B701C8010E941C
:10439000D52F18160CF07CC16091830170918401B7
:1043A000809185019091860190582D893E894F8991
:1043B000588D0E94BC304B015C01209187013091E7
:1043C00088014091890150918A01698D7A8D8B8D88
:1043D0009C8D0E94BC309B01AC01C501B4010E94C0
:1043E000BD2C4B015C0120918B0130918C014091DF
:1043F0008D0150918E01C301B2010E94BC309B011E
:10440000AC01C501B4010E94BD2C4B015C0123E34A
:1044100033E343E75FE30E94B32D87FF39C1970180
:10442000A80169817D8189859D850E94D52F1816F7
:1044300024F0E980FD8009851D8523E333E343E70C
:104440005FEBC501B4010E94D52F18160CF044C0D3
:10445000A501940160E070E080E89FE30E94BD2C1C
:1044600020E030E040E05FE30E94BC300E945B311E
:104470004B015C01209120073091210740912207D8
:10448000509123076D8D7E8D8F8D98A10E94BC3039
:10449000A50194010E94BC3069A37AA38BA39CA3BD
:1044A000A501940160E070E080E89FE30E94BD2CCC
:1044B0009B01AC0169A17AA18BA19CA10E94BD2D99
:1044C0000E945B315B016C019701A8010E94D52F0E
:1044D000181614F0750186018BE3829DF001839D0F
:1044E000F00D1124EA56FE4FC701D801818F928F3B
:1044F000A38FB48F6D8D7E8D8F8D98A190589B0169
:10450000AC010E94BE2C29893A894B895C890E94A2
:10451000BC309B01AC0160E070E0CB010E94BD2C7F
:104520000E945B315B016C019B01AC01B701C801CA
:104530000E94B32D87FD02C0750186012BE3229DE9
:10454000C001239D900D1124FC01EA56FE4F4F013E
:10455000C701D801858B968BA78BB08F9501A601DB
:1045600069817D8189859D850E94B32D18160CF483
:1045700094C081E0D40192968C938BE3829DF001EC
:10458000839DF00D1124EA56FE4F81E081A3ED8852
:10459000FE880F89188DE0928301F09284010093C8
:1045A000850110938601E98CFA8C0B8D1C8DE092AD
:1045B0008701F09288010093890110938A0140924B
:1045C0008B0150928C0160928D0170928E018981D5
:1045D0009D81A985BD8580938F0190939001A093C3
:1045E0009101B09392018091930180939501809104
:1045F00095018F5F823109F480E0809393014DA093
:104600005EA06FA078A440927701509278016092EA
:10461000790170927A01E9A4FAA40BA51CA5E09295
:104620007B01F0927C0100937D0110937E014DA4EB
:104630005EA46FA478A840927F015092800160929E
:104640008101709282010E949D1D0E94B81EE19618
:104650000FB6F894DEBF0FBECDBFDF91CF911F9193
:104660000F91FF90EF90DF90CF90BF90AF909F9011
:104670008F907F906F905F904F903F902F900C9411
:10468000171D60E070E080E89FE30E94BD2DEDCD36
:10469000E12CF12C00E010E01FCFF40112A26DCF4D
:1046A000E1960FB6F894DEBF0FBECDBFDF91CF917C
:1046B0001F910F91FF90EF90DF90CF90BF90AF9040
:1046C0009F908F907F906F905F904F903F902F9032
:1046D0000895EF92FF920F931F93E7E7F1E0608355
:1046E0007183828393832483358346835783E08653
:1046F000F186028713871F910F91FF90EF90089525
:104700008F929F92AF92BF92CF92DF92EF92FF92E1
:10471000CF93DF936B017C01C09194018BE3C89F21
:10472000E0011124CA56DE4FC7010E94672E2D8D6D
:104730003E8D4F8D58A10E94BC304B015C016D85B0
:104740007E858F8598890E94672E9B01AC01C501EB
:10475000B4010E94BD2D6D8F7E8F8F8F98A3CD8663
:10476000DE86EF86F88A1D8A1E8A1F8A188E198EA9
:104770001A8E1B8E1C8E1AA281E089A30E949D1D99
:104780000E94B81EDF91CF91FF90EF90DF90CF9005
:10479000BF90AF909F908F900C94171D4F925F9297
:1047A0006F927F92AF92BF92CF92DF92EF92FF9281
:1047B0000F931F93CF93DF936C017B015A01DB01B1
:1047C000EC91E80FF92FF11D8081EF018D3229F571
:1047D0002296818101E0512CF0E010E020E030E0F1
:1047E000A9013E01E0EDE80FEA3018F5FF5FF9306E
:1047F000E0F451101150A5E0B0E00E94ED319B01B2
:10480000AC01220F331F441F551F2E0F311D411DB8
:10481000511D2196D3018C91E4CF8B3219F0219652
:1048200000E0D9CF22968181FBCF5110F2CF1F5FDC
:10483000F0CFEE3F29F4511003C055245394E9CF33
:1048400090E080E0FF2301F1CA01B9010E94652ECA
:104850002B013C0120E030E0A9010E94B32D811121
:104860002DC0002309F447C077FA709477F870944C
:10487000F5014082518262827382CC19DD09C150F8
:10488000F701C08381E090E0DF91CF911F910F91FC
:10489000FF90EF90DF90CF90BF90AF907F906F90A0
:1048A0005F904F9008952AE037ED43E25CE3C30147
:1048B000B2010E94BC302B013C011E5F1F3F9CF3E4
:1048C0001F3F59F42DEC3CEC4CEC5DE3C301B2010D
:1048D0000E94BC302B013C01C4CF112311F220E017
:1048E00030E040E251E4C301B2010E94BC302B0130
:1048F0003C011150F2CFD5014D925D926D927C92A8
:104900001397BBCF019708F40895EFE9FFE03197C3
:10491000F1F700C00000F6CF611571058105910522
:1049200009F408956A3071058105910548F425E080
:104930002A95F1F700006150710981099109ECCFC6
:10494000643671058105910548F4E5E3EA95F1F7D0
:1049500000006A50710981099109DECF683EF3E0D9
:104960007F078105910558F4EFE8F1E03197F1F701
:1049700000C000006456710981099109CDCFEFE9AB
:10498000FFE03197F1F700C00000685E73408109D5
:104990009109C2CFEF92FF920F931F93CF93DF93B2
:1049A000CCEBD5E0EB84FC840D851E852F8138850A
:1049B00049855A856B817C818D819E810E94692306
:1049C000EB84FC840D851E852F81388549855A85A9
:1049D0006B817C818D819E810E94B008DF91CF9197
:1049E0001F910F91FF90EF9008952F923F924F9259
:1049F0005F926F927F928F929F92AF92BF92CF926F
:104A0000DF92EF92FF920F931F93CF93DF93CDB777
:104A1000DEB7A4970FB6F894DEBF0FBECDBF082F48
:104A2000362E49015A01FE01399684E0DF011D92BC
:104A30008A95E9F760910107709102078091030759
:104A4000909104070E948930D62EE72EF82E192F58
:104A500069837A838B839C83609105077091060735
:104A600080910707909108070E9489306D837E83AB
:104A70008F8398874D2C5E2C6F2C712E461657060F
:104A80006806790610F42B013C01C301B2010E94B3
:104A9000652E23EF34E045EB5FE30E94BD2D6B01F3
:104AA0007C0120911C0730911D0740911E075091F9
:104AB0001F070E94BC3020E030E84BE355E40E9421
:104AC000BD2D0E949C2D0E94362E69A37AA38BA334
:104AD0009CA323EF34E045EB5FE3C501B4010E94E2
:104AE000BC30A70196010E94BC309B01AC0160EC78
:104AF00071EE84E69CE40E94BD2D0E9489304B013A
:104B00005C017C016B01B8EF8B16B4E29B06B1E04F
:104B1000AB06B10438F048EFC42E44E2D42EEE24A4
:104B2000E394F12C10912507107E80911707182728
:104B3000011102C080EE1827D301C201B695A795D6
:104B40009795879522273327A901281B390B4A0BF4
:104B50005B0B298B3A8B4B8B5C8B80910E07A701EB
:104B60009601281B3109410951092D8F3E8F4F8F26
:104B700058A389899A89AB89BC898D8B9E8BAF8B11
:104B8000B88F20E137E240E050E02D873E874F8725
:104B9000588B198E1A8E1B8E1C8E03E038E0232E44
:104BA00023B1332011F03EE0232700FFB2C049813A
:104BB0005A816B817C8189899A89AB89BC89480F2C
:104BC000591F6A1F7B1F498B5A8B6B8B7C8B14166A
:104BD0001506160617060CF09CC034E0312721FD9F
:104BE00002C00E7F312FDB01CA0184199509A60985
:104BF000B709898B9A8BAB8BBC8B01FF22C04D818F
:104C00005E816F8178858D899E89AF89B88D480FC7
:104C1000591F6A1F7B1F4D8B5E8B6F8B788F14160D
:104C200015061606170684F422FF75C03225DB012F
:104C3000CA0184199509A609B7098D8B9E8BAF8B84
:104C4000B88F002309F469C09091BE0594FD65C03A
:104C50009BB1937E832F8C71892B8BB960910E074A
:104C600070E090E080E00E948C241BB96D8D7E8DF9
:104C70008F8D98A10E948C248C149D04AE04BF04D7
:104C800008F08ECF2D853E854F8558892C0D3D1D12
:104C90004E1D5F1D2D873E874F87588B21328EE436
:104CA00038074105510508F47BCF20523E444109A5
:104CB00051092D873E874F87588B298D3A8D4B8D13
:104CC0005C8D89A19AA1ABA1BCA1280F391F4A1FF5
:104CD0005B1F298F3A8F4B8F5C8F60E077E883E909
:104CE00093E00E94C5317501640182169306A40603
:104CF000B50610F469017A0180910E07A7019601AB
:104D0000281B3109410951092D8F3E8F4F8F58A320
:104D100047CF312F72CF0D7F8ACFA4960FB6F8946C
:104D2000DEBF0FBECDBFDF91CF911F910F91FF90DE
:104D3000EF90DF90CF90BF90AF909F908F907F903B
:104D40006F905F904F903F902F90089584B1817F36
:104D500084B985B18E6085B98091240783FF0BC02B
:104D600080916B008E6080936B0080916800816001
:104D700080936800089580916B00817F80936B0021
:104D8000809168008E7FF4CF1F920F920FB60F9222
:104D900011242F933F934F935F936F937F938F9340
:104DA0009F93AF93BF93EF93FF938091BD058630A0
:104DB00059F08091BE0585FD07C00E943E08809194
:104DC000BE0580648093BE05FF91EF91BF91AF91C6
:104DD0009F918F917F916F915F914F913F912F9113
:104DE0000F900FBE0F901F901895CF930E94C31481
:104DF00020912A0730912B0740912C0750912D07C5
:104E000060E081E00E94F52480912E0790912F07A9
:104E10000E94822482E0CFEFC80FCF3F19F4CF91D8
:104E20000C94E01420912607309127074091280721
:104E30005091290761E080E00E94F52480912E07BF
:104E400090912F070E94822480E0C13021F72091A9
:104E5000260730912707409128075091290760E0E5
:104E600081E00E94F52480912E0790912F070E94E7
:104E7000822481E0D0CFCF93DF93EC01899181111F
:104E800003C0DF91CF9108950E945311F7CFCF93C4
:104E9000DF93EC01FE0184912196811103C0DF9123
:104EA000CF9108950E945311F5CFEF92FF920F9387
:104EB0001F93CF93DF93CDB7DEB728970FB6F89443
:104EC000DEBF0FBECDBF9E012F5F3F4F7901285F30
:104ED0003F4FF701982F917091938695E217F30752
:104EE000C9F78F01F80182918F01805D0E945311F3
:104EF0000E151F05B9F728960FB6F894DEBF0FBE42
:104F0000CDBFDF91CF911F910F91FF90EF9008954A
:104F10008F929F92AF92BF92CF92DF92EF92FF92C9
:104F20000F931F93CF93DF93CDB7DEB72A970FB6BA
:104F3000F894DEBF0FBECDBF6B017C01F7FE41C010
:104F40008DE20E945311F094E094D094C094C11C5F
:104F5000D11CE11CF11CC701B601E12C8E010F5FD1
:104F60001F4F2AE0822E912CA12CB12C6801CE0C6F
:104F7000D11CA50194010E94C531605DF6016083DA
:104F8000B901CA01E394611571058105910571F7B5
:104F9000E00EF12EF11C0E151F0569F52A960FB6CD
:104FA000F894DEBF0FBECDBFDF91CF911F910F915F
:104FB000FF90EF90DF90CF90BF90AF909F908F9039
:104FC0000895C114D104E104F10429F680E32A967E
:104FD0000FB6F894DEBF0FBECDBFDF91CF911F910A
:104FE0000F91FF90EF90DF90CF90BF90AF909F9088
:104FF0008F900C945311F70182917F010E945311FD
:10500000CACF8F929F92AF92BF92CF92DF92EF92D0
:10501000FF920F931F93CF93DF93CDB7DEB72A97FD
:105020000FB6F894DEBF0FBECDBF6B017C0120E050
:1050300030E0A9010E94B32D87FF07C08DE20E94D6
:105040005311F7FAF094F7F8F09410913507012F07
:10505000023008F054C010FF0AC020E030E040E207
:1050600051E4C701B6010E94BC306B017C0120E015
:1050700030E040E05FE3C701B6010E94BE2C0E9411
:105080002F2E9E012F5F3F4F7901F901E10FF11D96
:105090002EE2208300E02AE0822E912CA12CB12C5C
:1050A0006115710581059105B1F5F701E00FF11D5D
:1050B00080E3011708F440C0011308C0E1E0E00FED
:1050C000EE0DFF2DF11D0E5F80E380830E0D1F2D71
:1050D000111D0E151F0599F52A960FB6F894DEBF1F
:1050E0000FBECDBFDF91CF911F910F91FF90EF9039
:1050F000DF90CF90BF90AF909F908F90089520E069
:1051000030E048EC52E4C701B6010E94BC306B01AC
:105110007C0102509DCF011301C00F5F6701C00EDB
:10512000D11CA50194010E94C531605DF601608328
:10513000B901CA010F5FB4CF0F5F8193BACFF801F5
:1051400082918F010E945311C4CFCF93C82F8EEE4E
:1051500096E0CC2301F186EE96E00E944727C150ED
:10516000CD30B8F4EC2FF0E0E854F74D0C94E73173
:10517000C528CE28D128D428D728DA28DD28E02849
:10518000E328E628E928EC28EF2884ED96E00E9441
:10519000472787EF95E0CF910C9447278CEB96E05B
:1051A000F6CF86EA96E0F3CF87E996E0F0CF81E884
:1051B00096E0EDCF8FE696E0EACF8EE596E0E7CF7A
:1051C00082E596E0E4CF83E496E0E1CF82E296E0E8
:1051D000DECF83E196E0DBCF88E096E0D8CF8AEFA0
:1051E00095E0D5CFCF93C82F8FEE95E00E9447274B
:1051F000CE3F69F084EE95E0CF3F59F087EC95E023
:105200000E94472784EF91E0CF910C94822481ED96
:1052100095E00E944727F2CFCF93C82F85EC95E009
:105220000E944727C330C1F058F4C13091F08FE994
:1052300095E0C23059F088E795E0CF910C9447276C
:10524000C43069F08CE795E0C530A9F70E94472784
:10525000F2CF83EB95E0FACF8DE895E0F7CF85E8C4
:1052600095E0F4CF8BE595E00C9447278DE294E030
:105270000C944727CF93DF9389E294E00E9447275D
:10528000C1E0D7E0688179818A819B810E940128F1
:1052900086E194E00E9447276C817D818E819F8109
:1052A0000E94012883E094E00E9447276885798561
:1052B0008A859B850E94012880EF93E00E94472702
:1052C0006D8570E090E080E00E94882787ED93E094
:1052D0000E9447276E857F85888999890E940128C9
:1052E0008AEB93E00E9447276A897B898C899D8994
:1052F0000E9401288DE993E00E9447276E8970E0A3
:1053000090E080E00E9488278FE793E00E94472783
:105310008E890E94552788E793E00E9447276BA952
:1053200070E090E080E00E9488278AE593E00E9488
:10533000472720E030E041E655E46B8D7C8D8D8D74
:105340009E8D0E94BD2D0E9401288BE393E00E9458
:1053500047276F8D78A189A19AA10E9401288BE12E
:1053600093E00E9447276F89788D898D9A8D0E94DE
:10537000012882E093E00E9447276DA970E090E049
:1053800080E00E94882783EE92E00E9447276CA964
:1053900070E090E080E00E9488278AEC92E00E9412
:1053A00047276BA1617070E090E080E00E94882741
:1053B0008DEA92E00E9447276BA16695617070E0CC
:1053C00090E080E00E94882783E992E00E944727CE
:1053D0006BA162FB662760F970E090E080E00E94BC
:1053E000882781E792E00E9447276BA163FB66272D
:1053F00060F970E090E080E00E94882786E592E006
:105400000E9447276BA16295617070E090E080E098
:105410000E9488278AE392E00E9447276CA170E0EF
:1054200090E080E00E9488278BE192E00E9447276D
:105430008CA10E94552783E192E00E9447276DA12D
:105440007EA18FA198A50E94012886EF91E00E947D
:10545000472769A57AA58BA59CA50E94012889EDFF
:1054600091E00E9447276DA57EA590E080E00E9414
:1054700088278AEB91E00E9447276FA578A989A920
:105480009AA90E94012881EA91E0DF91CF910C94C2
:105490004727EF92FF920F931F93CF93DF93CDB7E0
:1054A000DEB72C970FB6F894DEBF0FBECDBF10E06D
:1054B000BE016F5F7F4F812F0E941E1A811119C09C
:1054C00086EE96E00E94472782E296E00E944727F8
:1054D00087EF95E00E9447272C960FB6F894DEBF21
:1054E0000FBECDBFDF91CF911F910F91FF90EF9035
:1054F00008958EE991E00E944727EFEFE10F8AE9D6
:1055000091E0E73070F4F0E0E857F54D0C94E731A6
:105510008F2ADF2AE22AE52AE82AEB2AEE2A86E900
:1055200091E00E944727CE0101967C0100E0F7013F
:1055300061917191819191917F012091240720FFC8
:1055400006C02BE832E441E25DE30E94BC300E94D9
:1055500001288CE791E0023011F488E791E00E9485
:1055600047270F5F033019F71F5F183009F0A0CFEE
:1055700082E791E00E94472785EFE82E85E0F82E2C
:1055800010E0F70161917191819191917F012091DA
:10559000240720FF06C02BE832E441E25DE30E94CD
:1055A000BC300E94012880E791E0123011F48CE6B3
:1055B00091E00E9447271F5F133019F78DCF82E9D2
:1055C00091E0AFCF8EE891E0ACCF8AE891E0A9CF2F
:1055D00086E891E0A6CF82E891E0A3CF8EE791E044
:1055E000A0CF8091CD05823069F1E8F4882311F1D4
:1055F000813029F184E591E00E9447276091E80518
:1056000070E06A5C7F4F072E000C880B990B0E949C
:1056100088278091E5058823D9F0823009F447C0B6
:1056200085E491E017C0833081F0843019F787E575
:1056300091E002C088E691E00E944727DBCF84E634
:1056400091E0FACF80E691E0F7CF8CE591E0F4CFDE
:105650008FE491E00E9447278091CF05882351F184
:1056600080E491E00E9447278091D005882329F1AA
:1056700086E391E00E9447278091CE05882301F1BF
:105680008CE291E00E9447278091D105813001F1A1
:10569000D0F0823001F18091D205882309F44FC007
:1056A0008130E1F08F3FF1F483E191E019C08AE4A9
:1056B00091E0D0CF8BE391E0D5CF81E391E0DACFD9
:1056C00087E291E0DFCF83E291E00E944727E3CFBA
:1056D0008FE191E0FACF8BE191E0F7CF87E191E0A4
:1056E0000E9447278091D305882361F1813079F1A9
:1056F00084E091E00E9447276091E40570E090E02B
:1057000080E00E94882781E091E00E9447278091F5
:10571000CF058823F9F02BE832E441E25DE36091A4
:10572000D4057091D5058091D6059091D7050E943A
:10573000BC300E9401288DEF90E00C9447278FE049
:1057400091E0CECF8BE091E00E944727D1CF87E058
:1057500091E0FACF6091D4057091D5058091D6057E
:105760009091D705E6CF0F931F93CF93C82F8B014E
:105770008AEF90E00E9447276C2F70E090E080E075
:105780000E94882788EF90E00E944727C8010E9466
:105790003B2785EF90E0CF911F910F910C94472705
:1057A0004F925F926F927F928F929F92AF92BF9231
:1057B000CF92DF92EF92FF920F931F93CF93DF93DD
:1057C000CDB7DEB768970FB6F894DEBF0FBECDBF7A
:1057D0008CE0EFEBF5E0DE011D9601900D928A95CD
:1057E000E1F7E091BD05E83088F4F0E0E650F44DD3
:1057F0000C94E731022C062CAB2CAE2CB12CB42C23
:10580000B72CBA2C8FEE90E00E94472782EC90E0F4
:105810000E9447276E018DE0C80ED11C91E0A92E91
:1058200097E0B92E8E010F5F1F4F4E01E9E18E0EFA
:10583000911C7801F60161917191819191916F01B3
:10584000F50141905190619071905F010E94672E27
:10585000A30192010E94BD2DF701608371838283B1
:1058600093832091240720FF0BC02BE832E441E210
:105870005DE30E94BC30F701608371838283938370
:10588000F70161917191819191917F010E940128AD
:1058900080EC90E00E944727C814D90459F68AEB9F
:1058A00090E00E94472789EEC82E85E0D82EF12C83
:1058B000F80180809180A280B380F601619171919E
:1058C000819191916F0120853185428553850E9498
:1058D000BE2C2091240720FF06C02BE832E441E2D1
:1058E0005DE30E94BC309B01AC01C501B4010E9484
:1058F000BD2CF80160837183828393836081718101
:10590000828193810E940128F2E0FF1621F088EB4A
:1059100090E00E944727F3940C5F1F4F83E0F8123A
:10592000C7CF84EB90E068960FB6F894DEBF0FBE49
:10593000CDBFDF91CF911F910F91FF90EF90DF903E
:10594000CF90BF90AF909F908F907F906F905F901F
:105950004F900C94472788EE90E056CF83EE90E06E
:1059600053CF8DED90E050CF87ED90E04DCF80ED9F
:1059700090E04ACF89EC90E047CF5058BB27AA2748
:105980000E94D52C0C946F2F0E94362F38F00E9465
:105990003D2F20F039F49F3F19F426F40C940C2F7E
:1059A0000EF4E095E7FB0C94DD2EE92F0E94942F76
:1059B00058F3BA17620773078407950720F079F444
:1059C000A6F50C94CE2F0EF4E0950B2EBA2FA02D39
:1059D0000B01B90190010C01CA01A0011124FF279C
:1059E000591B99F0593F50F4503E68F11A16F04097
:1059F000A22F232F342F4427585FF3CF4695379596
:105A00002795A795F0405395C9F77EF41F16BA0B5A
:105A1000620B730B840BBAF09150A1F0FF0FBB1F08
:105A2000661F771F881FC2F70EC0BA0F621F731F51
:105A3000841F48F4879577956795B795F7959E3FAE
:105A400008F0B0CF9395880F08F09927EE0F97953F
:105A5000879508950E94362F60F080E891E009F460
:105A60009EEF0E943D2F28F040E851E071F45EEF78
:105A70000CC00C940C2F0C94CE2FE92FE0780E94D0
:105A8000942F40F3092E052AB1F32617370748074C
:105A9000590738F00E2E07F8E02569F0E025E0649C
:105AA0000AC0EF6307F8009407FADB01B9019D0112
:105AB000DC01CA01AD01EF930E94D42D0E946F2F2B
:105AC0000E946D2D5F91552339F02BED3FE049E4A5
:105AD00050FD49EC0C94BE2C0895DF93DD27B92FBF
